{
  "_format": "hh-sol-artifact-1",
  "contractName": "IPFSPaymentContract",
  "sourceName": "contracts/Payment.sol",
  "abi": [
    {
      "inputs": [
        {
          "internalType": "address",
          "name": "initialOwner",
          "type": "address"
        },
        {
          "internalType": "address",
          "name": "_tokenAddress",
          "type": "address"
        }
      ],
      "stateMutability": "nonpayable",
      "type": "constructor"
    },
    {
      "inputs": [
        {
          "internalType": "address",
          "name": "owner",
          "type": "address"
        }
      ],
      "name": "OwnableInvalidOwner",
      "type": "error"
    },
    {
      "inputs": [
        {
          "internalType": "address",
          "name": "account",
          "type": "address"
        }
      ],
      "name": "OwnableUnauthorizedAccount",
      "type": "error"
    },
    {
      "anonymous": false,
      "inputs": [
        {
          "indexed": false,
          "internalType": "string",
          "name": "ipfsHash",
          "type": "string"
        },
        {
          "indexed": true,
          "internalType": "address",
          "name": "uploader",
          "type": "address"
        },
        {
          "indexed": false,
          "internalType": "uint256",
          "name": "fileSize",
          "type": "uint256"
        },
        {
          "indexed": false,
          "internalType": "uint256",
          "name": "timestamp",
          "type": "uint256"
        }
      ],
      "name": "FileUploaded",
      "type": "event"
    },
    {
      "anonymous": false,
      "inputs": [
        {
          "indexed": true,
          "internalType": "address",
          "name": "previousOwner",
          "type": "address"
        },
        {
          "indexed": true,
          "internalType": "address",
          "name": "newOwner",
          "type": "address"
        }
      ],
      "name": "OwnershipTransferred",
      "type": "event"
    },
    {
      "anonymous": false,
      "inputs": [
        {
          "indexed": true,
          "internalType": "address",
          "name": "user",
          "type": "address"
        },
        {
          "indexed": false,
          "internalType": "uint256",
          "name": "amount",
          "type": "uint256"
        },
        {
          "indexed": false,
          "internalType": "string",
          "name": "ipfsHash",
          "type": "string"
        }
      ],
      "name": "PaymentProcessed",
      "type": "event"
    },
    {
      "anonymous": false,
      "inputs": [
        {
          "indexed": false,
          "internalType": "address",
          "name": "provider",
          "type": "address"
        }
      ],
      "name": "ProviderAdded",
      "type": "event"
    },
    {
      "anonymous": false,
      "inputs": [
        {
          "indexed": false,
          "internalType": "address",
          "name": "provider",
          "type": "address"
        }
      ],
      "name": "ProviderRemoved",
      "type": "event"
    },
    {
      "inputs": [],
      "name": "MIN_PROVIDERS",
      "outputs": [
        {
          "internalType": "uint256",
          "name": "",
          "type": "uint256"
        }
      ],
      "stateMutability": "view",
      "type": "function"
    },
    {
      "inputs": [],
      "name": "RATE",
      "outputs": [
        {
          "internalType": "uint256",
          "name": "",
          "type": "uint256"
        }
      ],
      "stateMutability": "view",
      "type": "function"
    },
    {
      "inputs": [
        {
          "internalType": "address",
          "name": "provider",
          "type": "address"
        }
      ],
      "name": "addStorageProvider",
      "outputs": [],
      "stateMutability": "nonpayable",
      "type": "function"
    },
    {
      "inputs": [
        {
          "internalType": "uint256",
          "name": "fileSize",
          "type": "uint256"
        }
      ],
      "name": "calculatePayment",
      "outputs": [
        {
          "internalType": "uint256",
          "name": "",
          "type": "uint256"
        }
      ],
      "stateMutability": "pure",
      "type": "function"
    },
    {
      "inputs": [
        {
          "internalType": "uint256",
          "name": "",
          "type": "uint256"
        }
      ],
      "name": "files",
      "outputs": [
        {
          "internalType": "string",
          "name": "ipfsHash",
          "type": "string"
        },
        {
          "internalType": "address",
          "name": "uploader",
          "type": "address"
        },
        {
          "internalType": "uint256",
          "name": "fileSize",
          "type": "uint256"
        },
        {
          "internalType": "uint256",
          "name": "timestamp",
          "type": "uint256"
        }
      ],
      "stateMutability": "view",
      "type": "function"
    },
    {
      "inputs": [
        {
          "internalType": "uint256",
          "name": "_index",
          "type": "uint256"
        }
      ],
      "name": "getFile",
      "outputs": [
        {
          "internalType": "string",
          "name": "",
          "type": "string"
        },
        {
          "internalType": "address",
          "name": "",
          "type": "address"
        },
        {
          "internalType": "uint256",
          "name": "",
          "type": "uint256"
        },
        {
          "internalType": "uint256",
          "name": "",
          "type": "uint256"
        }
      ],
      "stateMutability": "view",
      "type": "function"
    },
    {
      "inputs": [],
      "name": "getFileCount",
      "outputs": [
        {
          "internalType": "uint256",
          "name": "",
          "type": "uint256"
        }
      ],
      "stateMutability": "view",
      "type": "function"
    },
    {
      "inputs": [],
      "name": "getProviderCount",
      "outputs": [
        {
          "internalType": "uint256",
          "name": "",
          "type": "uint256"
        }
      ],
      "stateMutability": "view",
      "type": "function"
    },
    {
      "inputs": [],
      "name": "owner",
      "outputs": [
        {
          "internalType": "address",
          "name": "",
          "type": "address"
        }
      ],
      "stateMutability": "view",
      "type": "function"
    },
    {
      "inputs": [],
      "name": "paymentToken",
      "outputs": [
        {
          "internalType": "contract IERC20",
          "name": "",
          "type": "address"
        }
      ],
      "stateMutability": "view",
      "type": "function"
    },
    {
      "inputs": [
        {
          "internalType": "string",
          "name": "ipfsHash",
          "type": "string"
        },
        {
          "internalType": "uint256",
          "name": "fileSize",
          "type": "uint256"
        }
      ],
      "name": "processPayment",
      "outputs": [],
      "stateMutability": "nonpayable",
      "type": "function"
    },
    {
      "inputs": [
        {
          "internalType": "uint256",
          "name": "",
          "type": "uint256"
        }
      ],
      "name": "providerList",
      "outputs": [
        {
          "internalType": "address",
          "name": "",
          "type": "address"
        }
      ],
      "stateMutability": "view",
      "type": "function"
    },
    {
      "inputs": [
        {
          "internalType": "address",
          "name": "provider",
          "type": "address"
        }
      ],
      "name": "removeStorageProvider",
      "outputs": [],
      "stateMutability": "nonpayable",
      "type": "function"
    },
    {
      "inputs": [],
      "name": "renounceOwnership",
      "outputs": [],
      "stateMutability": "nonpayable",
      "type": "function"
    },
    {
      "inputs": [
        {
          "internalType": "address",
          "name": "",
          "type": "address"
        }
      ],
      "name": "storageProviders",
      "outputs": [
        {
          "internalType": "bool",
          "name": "",
          "type": "bool"
        }
      ],
      "stateMutability": "view",
      "type": "function"
    },
    {
      "inputs": [
        {
          "internalType": "address",
          "name": "newOwner",
          "type": "address"
        }
      ],
      "name": "transferOwnership",
      "outputs": [],
      "stateMutability": "nonpayable",
      "type": "function"
    }
  ],
  "bytecode": "0x608060405234801561001057600080fd5b5060405161230b38038061230b83398181016040528101906100329190610224565b81600073ffffffffffffffffffffffffffffffffffffffff168173ffffffffffffffffffffffffffffffffffffffff16036100a55760006040517f1e4fbdf700000000000000000000000000000000000000000000000000000000815260040161009c9190610273565b60405180910390fd5b6100b4816100fd60201b60201c565b5080600160006101000a81548173ffffffffffffffffffffffffffffffffffffffff021916908373ffffffffffffffffffffffffffffffffffffffff160217905550505061028e565b60008060009054906101000a900473ffffffffffffffffffffffffffffffffffffffff169050816000806101000a81548173ffffffffffffffffffffffffffffffffffffffff021916908373ffffffffffffffffffffffffffffffffffffffff1602179055508173ffffffffffffffffffffffffffffffffffffffff168173ffffffffffffffffffffffffffffffffffffffff167f8be0079c531659141344cd1fd0a4f28419497f9722a3daafe3b4186f6b6457e060405160405180910390a35050565b600080fd5b600073ffffffffffffffffffffffffffffffffffffffff82169050919050565b60006101f1826101c6565b9050919050565b610201816101e6565b811461020c57600080fd5b50565b60008151905061021e816101f8565b92915050565b6000806040838503121561023b5761023a6101c1565b5b60006102498582860161020f565b925050602061025a8582860161020f565b9150509250929050565b61026d816101e6565b82525050565b60006020820190506102886000830184610264565b92915050565b61206e8061029d6000396000f3fe608060405234801561001057600080fd5b50600436106100ff5760003560e01c8063715018a611610097578063bab50cc911610066578063bab50cc91461029f578063bbbc1f08146102bd578063f2fde38b146102d9578063f4c714b4146102f5576100ff565b8063715018a61461022b57806386b35583146102355780638c67f63a146102515780638da5cb5b14610281576100ff565b8063390bfd3c116100d3578063390bfd3c1461018f57806346ce4175146101bf57806360c351c0146101dd578063664e97041461020d576100ff565b80620eb06614610104578063100407b4146101225780632bfda3131461013e5780633013ce2914610171575b600080fd5b61010c610328565b60405161011991906112b5565b60405180910390f35b61013c60048036038101906101379190611342565b61032d565b005b6101586004803603810190610153919061139b565b6104b7565b6040516101689493929190611467565b60405180910390f35b610179610656565b6040516101869190611512565b60405180910390f35b6101a960048036038101906101a4919061139b565b61067c565b6040516101b6919061152d565b60405180910390f35b6101c76106bb565b6040516101d491906112b5565b60405180910390f35b6101f760048036038101906101f29190611342565b6106c8565b6040516102049190611563565b60405180910390f35b6102156106e8565b60405161022291906112b5565b60405180910390f35b6102336106f3565b005b61024f600480360381019061024a91906116b3565b610707565b005b61026b6004803603810190610266919061139b565b610bab565b60405161027891906112b5565b60405180910390f35b610289610bc7565b604051610296919061152d565b60405180910390f35b6102a7610bf0565b6040516102b491906112b5565b60405180910390f35b6102d760048036038101906102d29190611342565b610bfd565b005b6102f360048036038101906102ee9190611342565b610eaa565b005b61030f600480360381019061030a919061139b565b610f30565b60405161031f9493929190611467565b60405180910390f35b600381565b610335611018565b600260008273ffffffffffffffffffffffffffffffffffffffff1673ffffffffffffffffffffffffffffffffffffffff16815260200190815260200160002060009054906101000a900460ff16156103c2576040517f08c379a00000000000000000000000000000000000000000000000000000000081526004016103b99061175b565b60405180910390fd5b6001600260008373ffffffffffffffffffffffffffffffffffffffff1673ffffffffffffffffffffffffffffffffffffffff16815260200190815260200160002060006101000a81548160ff0219169083151502179055506003819080600181540180825580915050600190039060005260206000200160009091909190916101000a81548173ffffffffffffffffffffffffffffffffffffffff021916908373ffffffffffffffffffffffffffffffffffffffff1602179055507fae9c2c6481964847714ce58f65a7f6dcc41d0d8394449bacdf161b5920c4744a816040516104ac919061152d565b60405180910390a150565b606060008060006004805490508510610505576040517f08c379a00000000000000000000000000000000000000000000000000000000081526004016104fc906117c7565b60405180910390fd5b60006004868154811061051b5761051a6117e7565b5b906000526020600020906004020160405180608001604052908160008201805461054490611845565b80601f016020809104026020016040519081016040528092919081815260200182805461057090611845565b80156105bd5780601f10610592576101008083540402835291602001916105bd565b820191906000526020600020905b8154815290600101906020018083116105a057829003601f168201915b505050505081526020016001820160009054906101000a900473ffffffffffffffffffffffffffffffffffffffff1673ffffffffffffffffffffffffffffffffffffffff1673ffffffffffffffffffffffffffffffffffffffff16815260200160028201548152602001600382015481525050905080600001518160200151826040015183606001519450945094509450509193509193565b600160009054906101000a900473ffffffffffffffffffffffffffffffffffffffff1681565b6003818154811061068c57600080fd5b906000526020600020016000915054906101000a900473ffffffffffffffffffffffffffffffffffffffff1681565b6000600380549050905090565b60026020528060005260406000206000915054906101000a900460ff1681565b66038d7ea4c6800081565b6106fb611018565b610705600061109f565b565b60038080549050101561074f576040517f08c379a0000000000000000000000000000000000000000000000000000000008152600401610746906118c2565b60405180910390fd5b600061075a82610bab565b905080600160009054906101000a900473ffffffffffffffffffffffffffffffffffffffff1673ffffffffffffffffffffffffffffffffffffffff166370a08231336040518263ffffffff1660e01b81526004016107b8919061152d565b602060405180830381865afa1580156107d5573d6000803e3d6000fd5b505050506040513d601f19601f820116820180604052508101906107f991906118f7565b101561083a576040517f08c379a000000000000000000000000000000000000000000000000000000000815260040161083190611970565b60405180910390fd5b80600160009054906101000a900473ffffffffffffffffffffffffffffffffffffffff1673ffffffffffffffffffffffffffffffffffffffff1663dd62ed3e33306040518363ffffffff1660e01b8152600401610898929190611990565b602060405180830381865afa1580156108b5573d6000803e3d6000fd5b505050506040513d601f19601f820116820180604052508101906108d991906118f7565b101561091a576040517f08c379a000000000000000000000000000000000000000000000000000000000815260040161091190611a05565b60405180910390fd5b600160009054906101000a900473ffffffffffffffffffffffffffffffffffffffff1673ffffffffffffffffffffffffffffffffffffffff166323b872dd3330846040518463ffffffff1660e01b815260040161097993929190611a25565b6020604051808303816000875af1158015610998573d6000803e3d6000fd5b505050506040513d601f19601f820116820180604052508101906109bc9190611a88565b6109fb576040517f08c379a00000000000000000000000000000000000000000000000000000000081526004016109f290611b01565b60405180910390fd5b600060038054905082610a0e9190611b7f565b905060005b600380549050811015610b4a57600160009054906101000a900473ffffffffffffffffffffffffffffffffffffffff1673ffffffffffffffffffffffffffffffffffffffff1663a9059cbb60038381548110610a7257610a716117e7565b5b9060005260206000200160009054906101000a900473ffffffffffffffffffffffffffffffffffffffff16846040518363ffffffff1660e01b8152600401610abb929190611bb0565b6020604051808303816000875af1158015610ada573d6000803e3d6000fd5b505050506040513d601f19601f82011682018060405250810190610afe9190611a88565b610b3d576040517f08c379a0000000000000000000000000000000000000000000000000000000008152600401610b3490611c25565b60405180910390fd5b8080600101915050610a13565b50610b558484611163565b3373ffffffffffffffffffffffffffffffffffffffff167f606ff1e9632beb4e08a56115fa1b41c0f8bd35344e8527ddd9967c1260b601948386604051610b9d929190611c45565b60405180910390a250505050565b600066038d7ea4c6800082610bc09190611c75565b9050919050565b60008060009054906101000a900473ffffffffffffffffffffffffffffffffffffffff16905090565b6000600480549050905090565b610c05611018565b600260008273ffffffffffffffffffffffffffffffffffffffff1673ffffffffffffffffffffffffffffffffffffffff16815260200190815260200160002060009054906101000a900460ff16610c91576040517f08c379a0000000000000000000000000000000000000000000000000000000008152600401610c8890611d03565b60405180910390fd5b6000600260008373ffffffffffffffffffffffffffffffffffffffff1673ffffffffffffffffffffffffffffffffffffffff16815260200190815260200160002060006101000a81548160ff02191690831515021790555060005b600380549050811015610e6f578173ffffffffffffffffffffffffffffffffffffffff1660038281548110610d2457610d236117e7565b5b9060005260206000200160009054906101000a900473ffffffffffffffffffffffffffffffffffffffff1673ffffffffffffffffffffffffffffffffffffffff1603610e625760036001600380549050610d7e9190611d23565b81548110610d8f57610d8e6117e7565b5b9060005260206000200160009054906101000a900473ffffffffffffffffffffffffffffffffffffffff1660038281548110610dce57610dcd6117e7565b5b9060005260206000200160006101000a81548173ffffffffffffffffffffffffffffffffffffffff021916908373ffffffffffffffffffffffffffffffffffffffff1602179055506003805480610e2857610e27611d57565b5b6001900381819060005260206000200160006101000a81549073ffffffffffffffffffffffffffffffffffffffff02191690559055610e6f565b8080600101915050610cec565b507f1589f8555933761a3cff8aa925061be3b46e2dd43f621322ab611d300f62b1d981604051610e9f919061152d565b60405180910390a150565b610eb2611018565b600073ffffffffffffffffffffffffffffffffffffffff168173ffffffffffffffffffffffffffffffffffffffff1603610f245760006040517f1e4fbdf7000000000000000000000000000000000000000000000000000000008152600401610f1b919061152d565b60405180910390fd5b610f2d8161109f565b50565b60048181548110610f4057600080fd5b9060005260206000209060040201600091509050806000018054610f6390611845565b80601f0160208091040260200160405190810160405280929190818152602001828054610f8f90611845565b8015610fdc5780601f10610fb157610100808354040283529160200191610fdc565b820191906000526020600020905b815481529060010190602001808311610fbf57829003601f168201915b5050505050908060010160009054906101000a900473ffffffffffffffffffffffffffffffffffffffff16908060020154908060030154905084565b611020611294565b73ffffffffffffffffffffffffffffffffffffffff1661103e610bc7565b73ffffffffffffffffffffffffffffffffffffffff161461109d57611061611294565b6040517f118cdaa7000000000000000000000000000000000000000000000000000000008152600401611094919061152d565b60405180910390fd5b565b60008060009054906101000a900473ffffffffffffffffffffffffffffffffffffffff169050816000806101000a81548173ffffffffffffffffffffffffffffffffffffffff021916908373ffffffffffffffffffffffffffffffffffffffff1602179055508173ffffffffffffffffffffffffffffffffffffffff168173ffffffffffffffffffffffffffffffffffffffff167f8be0079c531659141344cd1fd0a4f28419497f9722a3daafe3b4186f6b6457e060405160405180910390a35050565b6000429050600460405180608001604052808581526020013373ffffffffffffffffffffffffffffffffffffffff16815260200184815260200183815250908060018154018082558091505060019003906000526020600020906004020160009091909190915060008201518160000190816111df9190611f28565b5060208201518160010160006101000a81548173ffffffffffffffffffffffffffffffffffffffff021916908373ffffffffffffffffffffffffffffffffffffffff160217905550604082015181600201556060820151816003015550503373ffffffffffffffffffffffffffffffffffffffff167f2369870ceabbbccff6e64e89d8a16a1fa45ec5151d67f8504110e1b2c59a72a184848460405161128793929190611ffa565b60405180910390a2505050565b600033905090565b6000819050919050565b6112af8161129c565b82525050565b60006020820190506112ca60008301846112a6565b92915050565b6000604051905090565b600080fd5b600080fd5b600073ffffffffffffffffffffffffffffffffffffffff82169050919050565b600061130f826112e4565b9050919050565b61131f81611304565b811461132a57600080fd5b50565b60008135905061133c81611316565b92915050565b600060208284031215611358576113576112da565b5b60006113668482850161132d565b91505092915050565b6113788161129c565b811461138357600080fd5b50565b6000813590506113958161136f565b92915050565b6000602082840312156113b1576113b06112da565b5b60006113bf84828501611386565b91505092915050565b600081519050919050565b600082825260208201905092915050565b60005b838110156114025780820151818401526020810190506113e7565b60008484015250505050565b6000601f19601f8301169050919050565b600061142a826113c8565b61143481856113d3565b93506114448185602086016113e4565b61144d8161140e565b840191505092915050565b61146181611304565b82525050565b60006080820190508181036000830152611481818761141f565b90506114906020830186611458565b61149d60408301856112a6565b6114aa60608301846112a6565b95945050505050565b6000819050919050565b60006114d86114d36114ce846112e4565b6114b3565b6112e4565b9050919050565b60006114ea826114bd565b9050919050565b60006114fc826114df565b9050919050565b61150c816114f1565b82525050565b60006020820190506115276000830184611503565b92915050565b60006020820190506115426000830184611458565b92915050565b60008115159050919050565b61155d81611548565b82525050565b60006020820190506115786000830184611554565b92915050565b600080fd5b600080fd5b7f4e487b7100000000000000000000000000000000000000000000000000000000600052604160045260246000fd5b6115c08261140e565b810181811067ffffffffffffffff821117156115df576115de611588565b5b80604052505050565b60006115f26112d0565b90506115fe82826115b7565b919050565b600067ffffffffffffffff82111561161e5761161d611588565b5b6116278261140e565b9050602081019050919050565b82818337600083830152505050565b600061165661165184611603565b6115e8565b90508281526020810184848401111561167257611671611583565b5b61167d848285611634565b509392505050565b600082601f83011261169a5761169961157e565b5b81356116aa848260208601611643565b91505092915050565b600080604083850312156116ca576116c96112da565b5b600083013567ffffffffffffffff8111156116e8576116e76112df565b5b6116f485828601611685565b925050602061170585828601611386565b9150509250929050565b7f50726f766964657220616c726561647920657869737473000000000000000000600082015250565b60006117456017836113d3565b91506117508261170f565b602082019050919050565b6000602082019050818103600083015261177481611738565b9050919050565b7f46696c6520646f6573206e6f7420657869737400000000000000000000000000600082015250565b60006117b16013836113d3565b91506117bc8261177b565b602082019050919050565b600060208201905081810360008301526117e0816117a4565b9050919050565b7f4e487b7100000000000000000000000000000000000000000000000000000000600052603260045260246000fd5b7f4e487b7100000000000000000000000000000000000000000000000000000000600052602260045260246000fd5b6000600282049050600182168061185d57607f821691505b6020821081036118705761186f611816565b5b50919050565b7f4e6f7420656e6f7567682073746f726167652070726f76696465727300000000600082015250565b60006118ac601c836113d3565b91506118b782611876565b602082019050919050565b600060208201905081810360008301526118db8161189f565b9050919050565b6000815190506118f18161136f565b92915050565b60006020828403121561190d5761190c6112da565b5b600061191b848285016118e2565b91505092915050565b7f496e73756666696369656e7420746f6b656e2062616c616e6365000000000000600082015250565b600061195a601a836113d3565b915061196582611924565b602082019050919050565b600060208201905081810360008301526119898161194d565b9050919050565b60006040820190506119a56000830185611458565b6119b26020830184611458565b9392505050565b7f546f6b656e20616c6c6f77616e636520746f6f206c6f77000000000000000000600082015250565b60006119ef6017836113d3565b91506119fa826119b9565b602082019050919050565b60006020820190508181036000830152611a1e816119e2565b9050919050565b6000606082019050611a3a6000830186611458565b611a476020830185611458565b611a5460408301846112a6565b949350505050565b611a6581611548565b8114611a7057600080fd5b50565b600081519050611a8281611a5c565b92915050565b600060208284031215611a9e57611a9d6112da565b5b6000611aac84828501611a73565b91505092915050565b7f546f6b656e207472616e73666572206661696c65640000000000000000000000600082015250565b6000611aeb6015836113d3565b9150611af682611ab5565b602082019050919050565b60006020820190508181036000830152611b1a81611ade565b9050919050565b7f4e487b7100000000000000000000000000000000000000000000000000000000600052601260045260246000fd5b7f4e487b7100000000000000000000000000000000000000000000000000000000600052601160045260246000fd5b6000611b8a8261129c565b9150611b958361129c565b925082611ba557611ba4611b21565b5b828204905092915050565b6000604082019050611bc56000830185611458565b611bd260208301846112a6565b9392505050565b7f50726f7669646572207061796d656e74206661696c6564000000000000000000600082015250565b6000611c0f6017836113d3565b9150611c1a82611bd9565b602082019050919050565b60006020820190508181036000830152611c3e81611c02565b9050919050565b6000604082019050611c5a60008301856112a6565b8181036020830152611c6c818461141f565b90509392505050565b6000611c808261129c565b9150611c8b8361129c565b9250828202611c998161129c565b91508282048414831517611cb057611caf611b50565b5b5092915050565b7f50726f766964657220646f6573206e6f74206578697374000000000000000000600082015250565b6000611ced6017836113d3565b9150611cf882611cb7565b602082019050919050565b60006020820190508181036000830152611d1c81611ce0565b9050919050565b6000611d2e8261129c565b9150611d398361129c565b9250828203905081811115611d5157611d50611b50565b5b92915050565b7f4e487b7100000000000000000000000000000000000000000000000000000000600052603160045260246000fd5b60008190508160005260206000209050919050565b60006020601f8301049050919050565b600082821b905092915050565b600060088302611de87fffffffffffffffffffffffffffffffffffffffffffffffffffffffffffffffff82611dab565b611df28683611dab565b95508019841693508086168417925050509392505050565b6000611e25611e20611e1b8461129c565b6114b3565b61129c565b9050919050565b6000819050919050565b611e3f83611e0a565b611e53611e4b82611e2c565b848454611db8565b825550505050565b600090565b611e68611e5b565b611e73818484611e36565b505050565b5b81811015611e9757611e8c600082611e60565b600181019050611e79565b5050565b601f821115611edc57611ead81611d86565b611eb684611d9b565b81016020851015611ec5578190505b611ed9611ed185611d9b565b830182611e78565b50505b505050565b600082821c905092915050565b6000611eff60001984600802611ee1565b1980831691505092915050565b6000611f188383611eee565b9150826002028217905092915050565b611f31826113c8565b67ffffffffffffffff811115611f4a57611f49611588565b5b611f548254611845565b611f5f828285611e9b565b600060209050601f831160018114611f925760008415611f80578287015190505b611f8a8582611f0c565b865550611ff2565b601f198416611fa086611d86565b60005b82811015611fc857848901518255600182019150602085019450602081019050611fa3565b86831015611fe55784890151611fe1601f891682611eee565b8355505b6001600288020188555050505b505050505050565b60006060820190508181036000830152612014818661141f565b905061202360208301856112a6565b61203060408301846112a6565b94935050505056fea264697066735822122081e300f8505ba46b6e9a71fbfb2869a9a2acb35f0dcef75089cb3d07e3813dfd64736f6c634300081b0033",
  "linkReferences": {},
  "deployedLinkReferences": {}
}