{
  "contractName": "StorageLending",
  "abi": [
    {
      "anonymous": false,
      "inputs": [
        {
          "indexed": false,
          "internalType": "uint256",
          "name": "agreementId",
          "type": "uint256"
        },
        {
          "indexed": false,
          "internalType": "address",
          "name": "provider",
          "type": "address"
        },
        {
          "indexed": false,
          "internalType": "address",
          "name": "requester",
          "type": "address"
        }
      ],
      "name": "AgreementCreated",
      "type": "event"
    },
    {
      "anonymous": false,
      "inputs": [
        {
          "indexed": false,
          "internalType": "uint256",
          "name": "agreementId",
          "type": "uint256"
        }
      ],
      "name": "AgreementEnded",
      "type": "event"
    },
    {
      "inputs": [],
      "name": "agreementCount",
      "outputs": [
        {
          "internalType": "uint256",
          "name": "",
          "type": "uint256"
        }
      ],
      "stateMutability": "view",
      "type": "function",
      "constant": true
    },
    {
      "inputs": [
        {
          "internalType": "uint256",
          "name": "",
          "type": "uint256"
        }
      ],
      "name": "agreements",
      "outputs": [
        {
          "internalType": "address",
          "name": "provider",
          "type": "address"
        },
        {
          "internalType": "address",
          "name": "requester",
          "type": "address"
        },
        {
          "internalType": "uint256",
          "name": "startTime",
          "type": "uint256"
        },
        {
          "internalType": "uint256",
          "name": "duration",
          "type": "uint256"
        },
        {
          "internalType": "uint256",
          "name": "payment",
          "type": "uint256"
        },
        {
          "internalType": "bool",
          "name": "isActive",
          "type": "bool"
        }
      ],
      "stateMutability": "view",
      "type": "function",
      "constant": true
    },
    {
      "inputs": [
        {
          "internalType": "address",
          "name": "_requester",
          "type": "address"
        },
        {
          "internalType": "uint256",
          "name": "_duration",
          "type": "uint256"
        }
      ],
      "name": "createAgreement",
      "outputs": [],
      "stateMutability": "payable",
      "type": "function",
      "payable": true
    },
    {
      "inputs": [
        {
          "internalType": "uint256",
          "name": "_agreementId",
          "type": "uint256"
        }
      ],
      "name": "endAgreement",
      "outputs": [],
      "stateMutability": "nonpayable",
      "type": "function"
    }
  ],
  "bytecode": "0x608060405234801561001057600080fd5b506109a7806100206000396000f3fe60806040526004361061003f5760003560e01c806333a82a9b14610044578063a2762bc214610060578063bb7bb27814610089578063bd14de96146100b4575b600080fd5b61005e600480360381019061005991906105b7565b6100f6565b005b34801561006c57600080fd5b50610087600480360381019061008291906105f3565b61028e565b005b34801561009557600080fd5b5061009e6104fe565b6040516100ab91906107ca565b60405180910390f35b3480156100c057600080fd5b506100db60048036038101906100d691906105f3565b610504565b6040516100ed96959493929190610709565b60405180910390f35b60016000815480929190610109906108cb565b91905055506040518060c001604052803373ffffffffffffffffffffffffffffffffffffffff1681526020018373ffffffffffffffffffffffffffffffffffffffff16815260200142815260200182815260200134815260200160011515815250600080600154815260200190815260200160002060008201518160000160006101000a81548173ffffffffffffffffffffffffffffffffffffffff021916908373ffffffffffffffffffffffffffffffffffffffff16021790555060208201518160010160006101000a81548173ffffffffffffffffffffffffffffffffffffffff021916908373ffffffffffffffffffffffffffffffffffffffff16021790555060408201518160020155606082015181600301556080820151816004015560a08201518160050160006101000a81548160ff0219169083151502179055509050507fe037ec30313eecdd927ffae3beed86a87b82f7bb794966ec08d75cf1a6e826866001543384604051610282939291906107e5565b60405180910390a15050565b600080600083815260200190815260200160002090508060000160009054906101000a900473ffffffffffffffffffffffffffffffffffffffff1673ffffffffffffffffffffffffffffffffffffffff163373ffffffffffffffffffffffffffffffffffffffff16148061035157508060010160009054906101000a900473ffffffffffffffffffffffffffffffffffffffff1673ffffffffffffffffffffffffffffffffffffffff163373ffffffffffffffffffffffffffffffffffffffff16145b610390576040517f08c379a00000000000000000000000000000000000000000000000000000000081526004016103879061076a565b60405180910390fd5b8060050160009054906101000a900460ff166103e1576040517f08c379a00000000000000000000000000000000000000000000000000000000081526004016103d8906107aa565b60405180910390fd5b806003015481600201546103f5919061082d565b421015610437576040517f08c379a000000000000000000000000000000000000000000000000000000000815260040161042e9061078a565b60405180910390fd5b60008160050160006101000a81548160ff0219169083151502179055508060000160009054906101000a900473ffffffffffffffffffffffffffffffffffffffff1673ffffffffffffffffffffffffffffffffffffffff166108fc82600401549081150290604051600060405180830381858888f193505050501580156104c2573d6000803e3d6000fd5b507fe68817e6393ef0ffbeea6b9f9250b8834e36523c649ab5c76f543218ca9600b8826040516104f291906107ca565b60405180910390a15050565b60015481565b60006020528060005260406000206000915090508060000160009054906101000a900473ffffffffffffffffffffffffffffffffffffffff16908060010160009054906101000a900473ffffffffffffffffffffffffffffffffffffffff16908060020154908060030154908060040154908060050160009054906101000a900460ff16905086565b60008135905061059c81610943565b92915050565b6000813590506105b18161095a565b92915050565b600080604083850312156105ca57600080fd5b60006105d88582860161058d565b92505060206105e9858286016105a2565b9150509250929050565b60006020828403121561060557600080fd5b6000610613848285016105a2565b91505092915050565b61062581610883565b82525050565b61063481610895565b82525050565b6000610647600c8361081c565b91507f556e617574686f72697a656400000000000000000000000000000000000000006000830152602082019050919050565b600061068760198361081c565b91507f41677265656d656e74206e6f74207965742065787069726564000000000000006000830152602082019050919050565b60006106c760178361081c565b91507f41677265656d656e7420616c726561647920656e6465640000000000000000006000830152602082019050919050565b610703816108c1565b82525050565b600060c08201905061071e600083018961061c565b61072b602083018861061c565b61073860408301876106fa565b61074560608301866106fa565b61075260808301856106fa565b61075f60a083018461062b565b979650505050505050565b600060208201905081810360008301526107838161063a565b9050919050565b600060208201905081810360008301526107a38161067a565b9050919050565b600060208201905081810360008301526107c3816106ba565b9050919050565b60006020820190506107df60008301846106fa565b92915050565b60006060820190506107fa60008301866106fa565b610807602083018561061c565b610814604083018461061c565b949350505050565b600082825260208201905092915050565b6000610838826108c1565b9150610843836108c1565b9250827fffffffffffffffffffffffffffffffffffffffffffffffffffffffffffffffff0382111561087857610877610914565b5b828201905092915050565b600061088e826108a1565b9050919050565b60008115159050919050565b600073ffffffffffffffffffffffffffffffffffffffff82169050919050565b6000819050919050565b60006108d6826108c1565b91507fffffffffffffffffffffffffffffffffffffffffffffffffffffffffffffffff82141561090957610908610914565b5b600182019050919050565b7f4e487b7100000000000000000000000000000000000000000000000000000000600052601160045260246000fd5b61094c81610883565b811461095757600080fd5b50565b610963816108c1565b811461096e57600080fd5b5056fea264697066735822122049ddc68c3ecac29642dfcf6f70da8511cfb33195f33bd2c8b65a9c7c266242b964736f6c63430008000033",
  "immutableReferences": {},
  "source": "// contracts/StorageLending.sol\npragma solidity ^0.8.0;\n\ncontract StorageLending {\n    struct Agreement {\n        address provider;\n        address requester;\n        uint256 startTime;\n        uint256 duration;\n        uint256 payment;\n        bool isActive;\n    }\n\n    mapping(uint256 => Agreement) public agreements;\n    uint256 public agreementCount;\n\n    event AgreementCreated(uint256 agreementId, address provider, address requester);\n    event AgreementEnded(uint256 agreementId);\n\n    function createAgreement(address _requester, uint256 _duration) external payable {\n        agreementCount++;\n        agreements[agreementCount] = Agreement({\n            provider: msg.sender,\n            requester: _requester,\n            startTime: block.timestamp,\n            duration: _duration,\n            payment: msg.value,\n            isActive: true\n        });\n\n        emit AgreementCreated(agreementCount, msg.sender, _requester);\n    }\n\n    function endAgreement(uint256 _agreementId) external {\n        Agreement storage agreement = agreements[_agreementId];\n        require(msg.sender == agreement.provider || msg.sender == agreement.requester, \"Unauthorized\");\n        require(agreement.isActive, \"Agreement already ended\");\n        require(block.timestamp >= agreement.startTime + agreement.duration, \"Agreement not yet expired\");\n\n        agreement.isActive = false;\n        payable(agreement.provider).transfer(agreement.payment);\n\n        emit AgreementEnded(_agreementId);\n    }\n}",
  "sourcePath": "/home/ishika/Documents/CSE/HACKATHONS/HackIndia/Attempt2/server/contracts/StorageLending.sol",
  "compiler": {
    "name": "solc",
    "version": "0.8.0+commit.c7dfd78e.Emscripten.clang"
  },
  "schemaVersion": "3.4.16",
  "updatedAt": "2024-10-08T03:23:29.695Z",
  "networkType": "ethereum",
  "devdoc": {
    "kind": "dev",
    "methods": {},
    "version": 1
  },
  "userdoc": {
    "kind": "user",
    "methods": {},
    "version": 1
  }
}