{
  "_format": "hh-sol-artifact-1",
  "contractName": "MyContract",
  "sourceName": "contracts/Storage.sol",
  "abi": [
    {
      "anonymous": false,
      "inputs": [
        {
          "indexed": false,
          "internalType": "string",
          "name": "ipfsHash",
          "type": "string"
        },
        {
          "indexed": true,
          "internalType": "address",
          "name": "uploader",
          "type": "address"
        },
        {
          "indexed": false,
          "internalType": "uint256",
          "name": "fileSize",
          "type": "uint256"
        },
        {
          "indexed": false,
          "internalType": "uint256",
          "name": "timestamp",
          "type": "uint256"
        }
      ],
      "name": "FileUploaded",
      "type": "event"
    },
    {
      "inputs": [
        {
          "internalType": "uint256",
          "name": "",
          "type": "uint256"
        }
      ],
      "name": "files",
      "outputs": [
        {
          "internalType": "string",
          "name": "ipfsHash",
          "type": "string"
        },
        {
          "internalType": "address",
          "name": "uploader",
          "type": "address"
        },
        {
          "internalType": "uint256",
          "name": "fileSize",
          "type": "uint256"
        },
        {
          "internalType": "uint256",
          "name": "timestamp",
          "type": "uint256"
        }
      ],
      "stateMutability": "view",
      "type": "function"
    },
    {
      "inputs": [
        {
          "internalType": "uint256",
          "name": "_index",
          "type": "uint256"
        }
      ],
      "name": "getFile",
      "outputs": [
        {
          "internalType": "string",
          "name": "",
          "type": "string"
        },
        {
          "internalType": "address",
          "name": "",
          "type": "address"
        },
        {
          "internalType": "uint256",
          "name": "",
          "type": "uint256"
        },
        {
          "internalType": "uint256",
          "name": "",
          "type": "uint256"
        }
      ],
      "stateMutability": "view",
      "type": "function"
    },
    {
      "inputs": [],
      "name": "getFileCount",
      "outputs": [
        {
          "internalType": "uint256",
          "name": "",
          "type": "uint256"
        }
      ],
      "stateMutability": "view",
      "type": "function"
    },
    {
      "inputs": [
        {
          "internalType": "string",
          "name": "_ipfsHash",
          "type": "string"
        },
        {
          "internalType": "uint256",
          "name": "_fileSize",
          "type": "uint256"
        }
      ],
      "name": "storeFile",
      "outputs": [],
      "stateMutability": "nonpayable",
      "type": "function"
    }
  ],
  "bytecode": "0x6080604052348015600f57600080fd5b50610bef8061001f6000396000f3fe608060405234801561001057600080fd5b506004361061004c5760003560e01c80632bfda3131461005157806359876de414610084578063bab50cc9146100a0578063f4c714b4146100be575b600080fd5b61006b600480360381019061006691906104fd565b6100f1565b60405161007b949392919061060a565b60405180910390f35b61009e6004803603810190610099919061078b565b61028e565b005b6100a86103bf565b6040516100b591906107e7565b60405180910390f35b6100d860048036038101906100d391906104fd565b6103cb565b6040516100e8949392919061060a565b60405180910390f35b606060008060008080549050851061013e576040517f08c379a00000000000000000000000000000000000000000000000000000000081526004016101359061084e565b60405180910390fd5b60008086815481106101535761015261086e565b5b906000526020600020906004020160405180608001604052908160008201805461017c906108cc565b80601f01602080910402602001604051908101604052809291908181526020018280546101a8906108cc565b80156101f55780601f106101ca576101008083540402835291602001916101f5565b820191906000526020600020905b8154815290600101906020018083116101d857829003601f168201915b505050505081526020016001820160009054906101000a900473ffffffffffffffffffffffffffffffffffffffff1673ffffffffffffffffffffffffffffffffffffffff1673ffffffffffffffffffffffffffffffffffffffff16815260200160028201548152602001600382015481525050905080600001518160200151826040015183606001519450945094509450509193509193565b6000429050600060405180608001604052808581526020013373ffffffffffffffffffffffffffffffffffffffff168152602001848152602001838152509080600181540180825580915050600190039060005260206000209060040201600090919091909150600082015181600001908161030a9190610aa9565b5060208201518160010160006101000a81548173ffffffffffffffffffffffffffffffffffffffff021916908373ffffffffffffffffffffffffffffffffffffffff160217905550604082015181600201556060820151816003015550503373ffffffffffffffffffffffffffffffffffffffff167f2369870ceabbbccff6e64e89d8a16a1fa45ec5151d67f8504110e1b2c59a72a18484846040516103b293929190610b7b565b60405180910390a2505050565b60008080549050905090565b600081815481106103db57600080fd5b90600052602060002090600402016000915090508060000180546103fe906108cc565b80601f016020809104026020016040519081016040528092919081815260200182805461042a906108cc565b80156104775780601f1061044c57610100808354040283529160200191610477565b820191906000526020600020905b81548152906001019060200180831161045a57829003601f168201915b5050505050908060010160009054906101000a900473ffffffffffffffffffffffffffffffffffffffff16908060020154908060030154905084565b6000604051905090565b600080fd5b600080fd5b6000819050919050565b6104da816104c7565b81146104e557600080fd5b50565b6000813590506104f7816104d1565b92915050565b600060208284031215610513576105126104bd565b5b6000610521848285016104e8565b91505092915050565b600081519050919050565b600082825260208201905092915050565b60005b83811015610564578082015181840152602081019050610549565b60008484015250505050565b6000601f19601f8301169050919050565b600061058c8261052a565b6105968185610535565b93506105a6818560208601610546565b6105af81610570565b840191505092915050565b600073ffffffffffffffffffffffffffffffffffffffff82169050919050565b60006105e5826105ba565b9050919050565b6105f5816105da565b82525050565b610604816104c7565b82525050565b600060808201905081810360008301526106248187610581565b905061063360208301866105ec565b61064060408301856105fb565b61064d60608301846105fb565b95945050505050565b600080fd5b600080fd5b7f4e487b7100000000000000000000000000000000000000000000000000000000600052604160045260246000fd5b61069882610570565b810181811067ffffffffffffffff821117156106b7576106b6610660565b5b80604052505050565b60006106ca6104b3565b90506106d6828261068f565b919050565b600067ffffffffffffffff8211156106f6576106f5610660565b5b6106ff82610570565b9050602081019050919050565b82818337600083830152505050565b600061072e610729846106db565b6106c0565b90508281526020810184848401111561074a5761074961065b565b5b61075584828561070c565b509392505050565b600082601f83011261077257610771610656565b5b813561078284826020860161071b565b91505092915050565b600080604083850312156107a2576107a16104bd565b5b600083013567ffffffffffffffff8111156107c0576107bf6104c2565b5b6107cc8582860161075d565b92505060206107dd858286016104e8565b9150509250929050565b60006020820190506107fc60008301846105fb565b92915050565b7f46696c6520646f6573206e6f7420657869737400000000000000000000000000600082015250565b6000610838601383610535565b915061084382610802565b602082019050919050565b600060208201905081810360008301526108678161082b565b9050919050565b7f4e487b7100000000000000000000000000000000000000000000000000000000600052603260045260246000fd5b7f4e487b7100000000000000000000000000000000000000000000000000000000600052602260045260246000fd5b600060028204905060018216806108e457607f821691505b6020821081036108f7576108f661089d565b5b50919050565b60008190508160005260206000209050919050565b60006020601f8301049050919050565b600082821b905092915050565b60006008830261095f7fffffffffffffffffffffffffffffffffffffffffffffffffffffffffffffffff82610922565b6109698683610922565b95508019841693508086168417925050509392505050565b6000819050919050565b60006109a66109a161099c846104c7565b610981565b6104c7565b9050919050565b6000819050919050565b6109c08361098b565b6109d46109cc826109ad565b84845461092f565b825550505050565b600090565b6109e96109dc565b6109f48184846109b7565b505050565b5b81811015610a1857610a0d6000826109e1565b6001810190506109fa565b5050565b601f821115610a5d57610a2e816108fd565b610a3784610912565b81016020851015610a46578190505b610a5a610a5285610912565b8301826109f9565b50505b505050565b600082821c905092915050565b6000610a8060001984600802610a62565b1980831691505092915050565b6000610a998383610a6f565b9150826002028217905092915050565b610ab28261052a565b67ffffffffffffffff811115610acb57610aca610660565b5b610ad582546108cc565b610ae0828285610a1c565b600060209050601f831160018114610b135760008415610b01578287015190505b610b0b8582610a8d565b865550610b73565b601f198416610b21866108fd565b60005b82811015610b4957848901518255600182019150602085019450602081019050610b24565b86831015610b665784890151610b62601f891682610a6f565b8355505b6001600288020188555050505b505050505050565b60006060820190508181036000830152610b958186610581565b9050610ba460208301856105fb565b610bb160408301846105fb565b94935050505056fea264697066735822122023cc2a566b98891801a5e0163f0e82b1d0966e0f47afe776a2ccd90cbd8519fc64736f6c634300081b0033",
  "linkReferences": {},
  "deployedLinkReferences": {}
}